:100000000C9462000C94DE050C94B7050C948A00E5
:100010000C948A000C948A000C948A000C948A0038
:100020000C948A000C948A000C948A000C94240787
:100030000C948A000C948A000C948A000C948A0018
:100040000C946D050C948A000C943B050C941505DA
:100050000C948A000C948A000C948A000C948A00F8
:100060000C9405060C948A00000000002400270070
:100070002A0000000000250028002B0000000000DE
:1000800023002600290004040404040404040202DA
:100090000202020203030303030301020408102007
:1000A0004080010204081020010204081020000012
:1000B0000008000201000003040700000000000027
:1000C0000000E00711241FBECFEFD8E0DEBFCDBF98
:1000D00011E0A0E0B1E0E8EBFCE102C005900D9278
:1000E000A63DB107D9F723E0A6EDB1E001C01D920E
:1000F000AA37B207E1F710E0C2E6D0E004C02197CA
:10010000FE010E94540EC136D107C9F70E9466084D
:100110000C945A0E0C9400008F929F92AF92BF9253
:10012000FF920F931F93CF93DF93F0906A032BE01E
:100130002F1508F44CC020916C0308E512E0021B57
:10014000110927FD1395000F111F000F111F20919A
:100150006B03C8E8D0E0C21BD10927FDD395CC0FB3
:10016000DD1FCC0FDD1F4E010D2E000CAA08BB08B1
:100170009801012E000C440B550B281939094A0926
:100180005B09DC010E94450C24EB30E040E050E0CC
:100190000E941B0C820E931EA41EB51E8C169D067B
:1001A0002CF0E801801691060CF4E4012297CC0FA4
:1001B000DD1F2FB7F8948F2D90E0FC01EE0FFF1F8D
:1001C000E80FF91FEB5BFC4FD283C1832FBFDF9198
:1001D000CF911F910F91FF90BF90AF909F908F9004
:1001E0000895609198027091990280919A0290917D
:1001F0009B0220E030E040EA50E40E947F0C6093D4
:1002000098027093990280939A0290939B0281E0E6
:1002100090E0909395028093940208950895089534
:10022000AF92BF92CF92DF92EF92FF920F931F9304
:10023000CF93DF936C017B018B01040F151FEB0142
:100240005E01AE18BF08C017D10759F06991D601F9
:10025000ED91FC910190F081E02DC6010995892B6B
:1002600079F7C501DF91CF911F910F91FF90EF902A
:10027000DF90CF90BF90AF900895FC01538D448DD7
:10028000252F30E0842F90E0821B930B541710F041
:10029000CF96089501970895FC01918D828D98174E
:1002A00061F0A28DAE0FBF2FB11D5D968C91928D26
:1002B0009F5F9F73928F90E008958FEF9FEF089557
:1002C000FC01918D828D981731F0828DE80FF11D20
:1002D000858D90E008958FEF9FEF0895FC01918D3B
:1002E000228D892F90E0805C9F4F821B91098F7334
:1002F000992708958CE992E00E946E0121E0892BF4
:1003000009F420E0822F089580E090E0892B29F005
:100310000E947A0181110C9400000895FC01A48DC3
:10032000A80FB92FB11DA35ABF4F2C91848D90E017
:1003300001968F739927848FA689B7892C93A089FA
:10034000B1898C91837080648C93938D848D981384
:1003500006C00288F389E02D80818F7D8083089517
:10036000EF92FF920F931F93CF93DF93EC0181E005
:10037000888F9B8D8C8D98131AC0E889F9898081AC
:1003800085FF15C09FB7F894EE89FF896083E889DF
:10039000F98980818370806480839FBF81E090E0D1
:1003A000DF91CF911F910F91FF90EF900895F62E5E
:1003B0000B8D10E00F5F1F4F0F731127E02E8C8DF8
:1003C0008E110CC00FB607FCFACFE889F98980813D
:1003D00085FFF5CFCE010E948E01F1CFEB8DEC0FA2
:1003E000FD2FF11DE35AFF4FF0829FB7F8940B8F5A
:1003F000EA89FB8980818062CFCFCF93DF93EC01C4
:10040000888D8823B9F0AA89BB89E889F9898C91FC
:1004100085FD03C0808186FD0DC00FB607FCF7CFB8
:100420008C9185FFF2CF808185FFEDCFCE010E94B8
:100430008E01E9CFDF91CF910895833081F028F4C8
:10044000813099F08230A9F008958730A9F0883082
:10045000C9F08430B1F4809180008F7D03C0809119
:1004600080008F7780938000089584B58F7784BD56
:10047000089584B58F7DFBCF8091B0008F778093F6
:10048000B00008958091B0008F7DF9CFCF93DF93B6
:10049000282F30E0F901E255FF4F8491F901E6562B
:1004A000FF4FD491F901EA57FF4FC491CC23A1F03B
:1004B00081110E941D02EC2FF0E0EE0FFF1FE458A7
:1004C000FF4FA591B491EC91ED2381E090E009F408
:1004D00080E0DF91CF91089580E090E0FACF1F9304
:1004E000CF93DF93282F30E0F901E255FF4F84913D
:1004F000F901E656FF4FD491F901EA57FF4FC49135
:10050000CC23A9F0162F81110E941D02EC2FF0E0E0
:10051000EE0FFF1FEE58FF4FA591B4918FB7F894DF
:10052000EC91111108C0D095DE23DC938FBFDF91D1
:10053000CF911F910895DE2BF8CFCF93DF9390E0FA
:10054000FC01E656FF4F24918A579F4FFC0184918E
:100550008823D1F090E0880F991FFC01E859FF4FE4
:10056000A591B491FC01EE58FF4FC591D491611152
:100570000EC09FB7F8948C91E22FE0958E238C9358
:100580002881E223E8839FBFDF91CF9108958FB741
:10059000F894EC91E22BEC938FBFF6CF3FB7F89431
:1005A0008091850290918602A0918702B091880285
:1005B00026B5A89B05C02F3F19F00196A11DB11DBE
:1005C0003FBFBA2FA92F982F8827BC01CD01620FFA
:1005D000711D811D911D42E0660F771F881F991FB5
:1005E0004A95D1F708958F929F92AF92BF92CF9282
:1005F000DF92EF92FF924B015C010E94CE026B01F1
:100600007C010E94CE026C197D098E099F09683E0B
:10061000734081059105A8F321E0821A9108A10891
:10062000B10888EEC80E83E0D81EE11CF11C8114CD
:100630009104A104B10429F7FF90EF90DF90CF90CF
:10064000BF90AF909F908F9008950895089585ED85
:100650008093BC008091BC0084FDFCCF10928F027F
:10066000089520911702260F3327331F21323105B9
:10067000ECF420918F02FC0190E080E0243069F0DE
:1006800082E00895A09117022191AC0149505E4F7C
:10069000A40FB52FB11D2C930196861798F3809166
:1006A0001702680F6093170280E0089581E00895B3
:1006B0000895E091930280919202E81730F4F0E0FF
:1006C000E952FE4F808190E008958FEF9FEF0895EB
:1006D00090919302809192022FEF3FEF981748F488
:1006E000E92FF0E0E952FE4F208130E09F5F9093C8
:1006F0009302C90108958091920290919302891BFF
:10070000990B0895CF92DF92EF92FF920F931F9370
:10071000CF93DF937C01CB018A0120915E022223DB
:1007200089F0EB016B01C40ED51ECC15DD0569F017
:100730006991D701ED91FC910190F081E02DC70105
:100740000995F3CF642F0E943103C801DF91CF9147
:100750001F910F91FF90EF90DF90CF900895CF936E
:10076000DF931F92CDB7DEB7698320915E0222230B
:10077000F9F020919002203258F021E030E0FC01A5
:100780003383228390E080E00F90DF91CF91089532
:1007900080919102E82FF0E0E15AFD4F998190831A
:1007A0008F5F809391028093900281E090E0ECCF84
:1007B00061E0CE0101960E943103F7CFCF93FC0197
:1007C000C48121E020935E02C0937F0210929102C7
:1007D000109290028485682B89E393E00E94AF0316
:1007E00090919002913208F03FC080918F02811168
:1007F000FCCF82E080938F0281E080938E028FEFA6
:1008000080935D0210925C0290935B02AFE5B2E0D0
:10081000EBE3F2E080E098132FC010923A0280914F
:100820003A02CC0FC82BC0933A0280918D028130DE
:1008300039F510928D0280913A028093BB0080912D
:10084000BC0083FDF8CF85EC8093BC0080918F02C3
:100850008230E1F380915D028F3F31F080915D0243
:10086000803211F080915D021092910210929002FC
:1008700010925E02CF9108952D9121938F5FCBCF7F
:1008800085EEE2CF90E080E00895FC010190002029
:10089000E9F73197AF01481B590BBC018DE693E096
:1008A0000C9410018F929F92AF92BF920F931F935F
:1008B000CF93DF93CDB7DEB7A1970FB6F894DEBF25
:1008C0000FBECDBF19A2423008F44AE08E010F5D81
:1008D0001F4F842E912CB12CA12CA50194010E94B4
:1008E0004D0CE62FB901CA01EA30F4F4E05DD801FD
:1008F000EE938D01232B242B252B79F790E080E0BC
:10090000109719F0CD010E944504A1960FB6F894F6
:10091000DEBF0FBECDBFDF91CF911F910F91BF9072
:10092000AF909F908F900895E95CE1CF0C944504BF
:100930000F931F93CF938C01C62F0E94DE036C2F61
:100940006460C8010E94DE036C2F6B7FC8010E94A7
:10095000DE0383EC90E00197F1F7CF911F910F91A7
:1009600008950F931F93CF93DF938C01D62FC42F3D
:10097000607F642B0E94980480E1D89FB00111240D
:100980006C2BC801DF91CF911F910F910C949804AB
:10099000CF93DF93CDB7DEB728970FB6F894DEBFBD
:1009A0000FBECDBF98E0EAE0F1E0DE0111960190C4
:1009B0000D929A95E1F790917503961710F46FEFE9
:1009C000690F262F30E0220F331F41E050E04C0F1B
:1009D0005D1F240F351FF9016081680F606840E0DA
:1009E0008DE693E028960FB6F894DEBF0FBECDBF1C
:1009F000DF91CF910C94B10440E061E08DE693E08B
:100A00000E94B1048BE39FE10197F1F78091760397
:100A1000882321F060E080E00C94C804089541E050
:100A20000E94B10481E090E008951F920F920FB6EA
:100A30000F9211242F933F934F935F936F937F9364
:100A40008F939F93AF93BF93EF93FF938CE992E0C3
:100A50000E948E01FF91EF91BF91AF919F918F9175
:100A60007F916F915F914F913F912F910F900FBEAA
:100A70000F901F9018951F920F920FB60F9211248E
:100A80002F938F939F93EF93FF93E091AC02F0919C
:100A9000AD028081E091B202F091B30282FD1BC0F1
:100AA00090818091B5028F5F8F732091B60282177B
:100AB00041F0E091B502F0E0E456FD4F958F809350
:100AC000B502FF91EF919F918F912F910F900FBEE3
:100AD0000F901F9018958081F4CF1F920F920FB640
:100AE0000F9211242F933F938F939F93AF93BF93B4
:100AF0008091810290918202A0918302B091840240
:100B00003091800223E0230F2D3758F50196A11D67
:100B1000B11D209380028093810290938202A09362
:100B20008302B09384028091850290918602A09105
:100B30008702B09188020196A11DB11D80938502A4
:100B400090938602A0938702B0938802BF91AF91E1
:100B50009F918F913F912F910F900FBE0F901F90FB
:100B6000189526E8230F0296A11DB11DD2CF1F9222
:100B70000F920FB60F9211242F933F934F935F93D1
:100B80006F937F938F939F93AF93BF93EF93FF9355
:100B9000E0910201F09103010995FF91EF91BF915E
:100BA000AF919F918F917F916F915F914F913F9105
:100BB0002F910F900FBE0F901F9018951F920F92BC
:100BC0000FB60F9211242F933F934F935F936F9320
:100BD0007F938F939F93AF93BF93EF93FF93E09196
:100BE0000001F09101010995FF91EF91BF91AF9143
:100BF0009F918F917F916F915F914F913F912F9135
:100C00000F900FBE0F901F9018951F920F920FB666
:100C10000F9211242F933F934F935F936F937F9382
:100C20008F939F93AF93BF93EF93FF938091B900FE
:100C3000887F803609F44AC0F0F5883209F4A7C0ED
:100C400018F5803109F49BC0B8F4882309F4F9C081
:100C5000883009F494C0FF91EF91BF91AF919F91BB
:100C60008F917F916F915F914F913F912F910F9055
:100C70000FBE0F901F901895883109F488C08032FC
:100C800051F780935D0214C0803409F49DC040F494
:100C90008033B9F38833F9F680935D0285ECB0C0F8
:100CA000803509F485C0883509F496C0883499F6F2
:100CB0000E942703D0CF883909F48CC038F58837D3
:100CC00029F050F4883611F0803729F683E08093BC
:100CD0008F021092390257C0883809F47BC08039DE
:100CE00019F0803809F0B7CF80913902803208F0CE
:100CF00071C0E091390281E08E0F809339028091BA
:100D0000BB00F0E0E75EFD4F80833DC0803B39F0E3
:100D1000E0F4803A09F479C0883A09F09CCF84E085
:100D200080938F021092180210921702E0918B02AA
:100D3000F0918C0209958091170281110FC081E01A
:100D4000809317021092F70109C0803C09F4A6CFE6
:100D5000883C09F4A3CF883B09F07DCFE0911802CD
:100D600081E08E0F80931802F0E0E950FE4F808101
:100D70008093BB00909118028091170229C0809146
:100D80003A028093BB0085EC8093BC0064CF9091C5
:100D90005C0280915B02981758F5E0915C0281E05B
:100DA0008E0F80935C02F0E0E55CFD4F8081E9CF1F
:100DB000E0915C0281E08E0F80935C028091BB0029
:100DC000F0E0E55CFD4F808390915C0280915B02D6
:100DD0009817C8F285E8D8CFE0915C0281E08E0FC9
:100DE00080935C028091BB00F0E0E55CFD4F808366
:100DF00080918E0281115CCF81E080938D0284EA24
:100E00008093BC0010928F0226CF85EC8093BC00AB
:100E100010928F0280913902803230F4E0913902D1
:100E2000F0E0E75EFD4F10826091390270E0E091E2
:100E30008902F0918A0289E192E0099510923902C3
:100E40000ACF10925D0234CF1F920F920FB60F920D
:100E500011242F933F934F935F936F937F938F93BF
:100E60009F93AF93BF93CF93DF93EF93FF938091C3
:100E7000D601C0916903D0E087FF24C0109285009D
:100E8000109284008091D6018F5F8093D60180916B
:100E9000D601082E000C990B8C179D0724F4809125
:100EA000D6018C30C4F18091840090918500049625
:100EB00080349C4908F47AC0809184009091850028
:100EC000049676C08091D601082E000C990B8C17E1
:100ED0009D07C4F6E091D6018E2FEE0F990BFC0111
:100EE000EE0FFF1FE80FF91FEB5BFC4F808186FFC1
:100EF000C9CFE091D6018E2FEE0F990BFC01EE0FBA
:100F0000FF1FE80FF91FEB5BFC4F808160E08F73E0
:100F10000E946F02B7CF2091840030918500E0914C
:100F2000D6018E2FEE0F990BFC01EE0FFF1FE80F7D
:100F3000F91FEB5BFC4F81819281820F931F90938D
:100F4000890080938800E091D6018E2FEE0F990BD7
:100F5000FC01EE0FFF1FE80FF91FEB5BFC4F8081D8
:100F600086FF11C0E091D6018E2FEE0F990BFC0188
:100F7000EE0FFF1FE80FF91FEB5BFC4F808161E074
:100F80008F730E946F02FF91EF91DF91CF91BF911C
:100F9000AF919F918F917F916F915F914F913F9111
:100FA0002F910F900FBE0F901F90189580E49CE931
:100FB00090938900809388008FEF8093D601E3CFD0
:100FC00010929F0210929E0288EE93E0A0E0B0E0A3
:100FD0008093A0029093A102A093A202B093A302D7
:100FE00026E131E030939D0220939C0225EC30E015
:100FF0003093A9022093A80224EC30E03093AB0296
:101000002093AA0220EC30E03093AD022093AC0292
:1010100021EC30E03093AF022093AE0222EC30E0BE
:101020003093B1022093B00226EC30E03093B3024B
:101030002093B2021092B5021092B6021092B7023B
:101040001092B80210923C0310923B0380933D0330
:1010500090933E03A0933F03B093400388E291E056
:1010600090933A03809339031092700310926F03A8
:101070008AE391E090936E0380936D031092760360
:1010800087E28093710380E18093770382E080930D
:10109000780310927903809169038C3098F491E081
:1010A000980F9093690380936A0390E0FC01EE0F20
:1010B000FF1FE80FF91FEB5BFC4F88EB9BE092836F
:1010C000818308958FEF80936A030895789484B59F
:1010D000826084BD84B5816084BD85B5826085BD34
:1010E00085B5816085BD80916E00816080936E00C2
:1010F00010928100809181008260809381008091B4
:101100008100816080938100809180008160809364
:1011100080008091B10084608093B1008091B00024
:1011200081608093B00080917A00846080937A001F
:1011300080917A00826080937A0080917A00816049
:1011400080937A0080917A00806880937A00109270
:10115000C100E091AC02F091AD0282E08083E091A9
:10116000A802F091A9021082E091AA02F091AB02CC
:101170008FEC80831092B402E091B002F091B10242
:1011800086E08083E091AE02F091AF0280818061C1
:101190008083E091AE02F091AF028081886080830D
:1011A000E091AE02F091AF02808180688083E0918F
:1011B000AE02F091AF0280818F7D808360E08CE091
:1011C0000E949D0260E08DE00E949D0261E086E049
:1011D0000E949D0261E080E00E946F0281EF90E03A
:1011E0009093010180930001809169008360809356
:1011F0006900E89A10929302109292021092910262
:101200001092900210928F0281E080938E021092D1
:101210008D0261E082E10E946F0261E083E10E9441
:101220006F028091B9008E7F8093B9008091B900E0
:101230008D7F8093B90088E48093B80085E4809323
:10124000BC008EE091E090938C0280938B028FE043
:1012500091E090938A0280938902109272038091A8
:101260007803823018F098E09093720380937503AE
:1012700062E370E080E090E00E94F3026091790305
:101280008DE693E00E94DE0368EE73E080E090E07C
:101290000E94F30260E38DE693E00E949804CBE4A1
:1012A000D6E4CE010197F1F760E38DE693E00E946A
:1012B00098042197F1F760E38DE693E00E9498048B
:1012C00083E592E00197F1F760E28DE693E00E94FA
:1012D000980460917203606240E08DE693E00E94A2
:1012E000B10484E08093730340E06CE08DE693E00A
:1012F0000E94B1040E94FC0482E08093740340E0E9
:1013000066E08DE693E00E94B10440E062E08DE685
:1013100093E00E94B1048BE39FE10197F1F788E02D
:101320008093790360E08DE693E00E94DE03809174
:101330006A038C3008F051C061E086E00E949D0293
:1013400080916A03282F30E0F901EE0FFF1FE20FB2
:10135000F31FEB5BFC4F9081907C96609083109222
:101360006B0310926C032CE0622F0E94480E829F48
:10137000B001112430E020E0AB01420F531FFA010D
:10138000EE0FFF1FE40FF51FEB5BFC4F908196FD06
:1013900016C02F5F3F4F2C30310571F781110FC000
:1013A0001092800082E0809381001092850010925C
:1013B0008400B19A80916F00826080936F00E09109
:1013C0006A038E2F90E0FC01EE0FFF1FE80FF91F5C
:1013D000EB5BFC4F80818064808300E010E0C1E023
:1013E000D0E080910801909109010197D1F40E9409
:1013F000FC04109298021092990210929A02109294
:101400009B0282E491E00E94960461E080E00E94E9
:10141000C80482E591E00E9496041092090110929E
:1014200008018CE00E9446020197F1F480910601C8
:10143000909107010197C1F41092050110920401E7
:101440000E94FC048EE591E00E94960468EE73E031
:1014500080E090E00E94F30261E080E00E94C80416
:101460008CE691E00E949604609198027091990236
:1014700080919A0290919B0220E030E040EF51E48D
:101480000E94EB0C811155C08091040190910501DF
:10149000892B09F04EC01092980210929902109276
:1014A0009A0210929B020E94FC0489E791E00E943C
:1014B000960468EB7BE080E090E00E94F3020E94DB
:1014C000FC0487E891E00E94960465E080E00E94B9
:1014D000C80488E991E00E94960464EF71E080E01E
:1014E00090E00E94F30287E890E00E948C0068EB95
:1014F0007BE080E090E00E94F30284E690E00E94AE
:101500008C0060ED77E080E090E00E94F3028DE2D5
:1015100090E00E948C006CEB72E080E090E00E9412
:10152000F30284E690E00E948C00D0939702C0936F
:1015300096028DE00E944602019721F580910401F8
:10154000909105010197F1F41092070110920601A4
:101550000E94FC0482EA91E00E94960468EE73E027
:1015600080E090E00E94F30261E080E00E94C80405
:101570008CE691E00E94960464EF71E080E090E0D8
:101580000E94F302609198027091990280919A02F0
:1015900090919B0220E030E040E252E40E94EB0C8C
:1015A000811155C08091060190910701892B09F0A6
:1015B0004EC0109298021092990210929A021092C4
:1015C0009B020E94FC0489E791E00E94960468EB6C
:1015D0007BE080E090E00E94F3020E94FC0487E838
:1015E00091E00E94960465E081E00E94C80488E9C9
:1015F00091E00E94960464EF71E080E090E00E9428
:10160000F3028DE290E00E948C0060ED77E080E0D4
:1016100090E00E94F30284E690E00E948C0060ED6E
:1016200077E080E090E00E94F30287E890E00E947B
:101630008C0060E273E080E090E00E94F30284E6B8
:1016400090E00E948C00D0939702C0939602E090A5
:101650009602F090970281E0E816F104F1F40E94FE
:10166000FC0481EB91E00E94960460EA7FE080E058
:1016700090E00E94F3020E94FC04F0920901E092C3
:101680000801F0920501E0920401F0920701E09256
:101690000601109297021092960280919402909106
:1016A0009502019741F5109295021092940268EC10
:1016B00070E080E090E00E94F3020E94FC048BEB5B
:1016C00091E00E94960461E080E00E94C804C0900E
:1016D0009802D0909902E0909A02F0909B02A701A4
:1016E0009601C701B6010E94430E882381F089EC60
:1016F00091E00E9445040115110509F472CE0E9483
:101700007A01882309F46DCE0E9400006ACE46015A
:101710005701E894B7F82FEF3FEF4FE75FE7C501B8
:10172000B4010E94430E81110DC02FEF3FEF4FE730
:101730005FE7C501B4010E94EB0C18161CF48DEC98
:1017400091E0D7CF2FEF3FEF4FE75FE4C701B6013E
:101750000E94D10D18161CF481ED91E0CACF2FEF35
:101760003FEF4FE75FECC701B6010E94EB0C87FD2E
:10177000F3CF20E030E0A901C701B6010E94EB0CD5
:1017800087FF0AC041E06DE28DE693E00E94B1045C
:10179000F7FAF094F7F8F0942AE037ED43EA5BE3C8
:1017A000C701B6010E947F0C4B015C010E94F00C46
:1017B0006B017C010E941F0D9B01AC01C501B401AE
:1017C0000E947E0C4B015C014AE0C701B6010E94F9
:1017D000520441E06EE28DE693E00E94B10420E005
:1017E00030E040E251E4C501B4010E94D60D4B0146
:1017F0005C010E94F00C6B01F12CE12C4AE0C70166
:10180000B6010E945204C701B6010E941F0D9B0140
:10181000AC01C501B4010E947E0C20E030E040E242
:1018200051E40E94D60D0E94F00C90E080E04AE066
:101830000E94520460CF052E97FB1EF400940E9474
:10184000320C57FD07D00E944D0C07FC03D04EF41C
:101850000C94320C50954095309521953F4F4F4F49
:101860005F4F089590958095709561957F4F8F4F4C
:101870009F4F08950E946F0CA59F900DB49F900DEF
:10188000A49F800D911D11240895B7FF0C943A0C6C
:101890000E943A0C821B930B0895A1E21A2EAA1BF8
:1018A000BB1BFD010DC0AA1FBB1FEE1FFF1FA21710
:1018B000B307E407F50720F0A21BB30BE40BF50B0D
:1018C000661F771F881F991F1A9469F76095709596
:1018D000809590959B01AC01BD01CF010895A29F19
:1018E000B001B39FC001A39F700D811D1124911DF4
:1018F000B29F700D811D1124911D08955058BB2772
:10190000AA270E94960C0C94970D0E94890D38F01E
:101910000E94900D20F039F49F3F19F426F40C94A6
:10192000860D0EF4E095E7FB0C94800DE92F0E94E4
:10193000A80D58F3BA17620773078407950720F0BC
:1019400079F4A6F50C94CA0D0EF4E0950B2EBA2F7F
:10195000A02D0B01B90190010C01CA01A0011124B5
:10196000FF27591B99F0593F50F4503E68F11A1661
:10197000F040A22F232F342F4427585FF3CF4695F2
:1019800037952795A795F0405395C9F77EF41F1614
:10199000BA0B620B730B840BBAF09150A1F0FF0FDE
:1019A000BB1F661F771F881FC2F70EC0BA0F621FCA
:1019B000731F841F48F4879577956795B795F795BA
:1019C0009E3F08F0B0CF9395880F08F09927EE0F4F
:1019D0009795879508950E945C0D08F481E008951D
:1019E0000E94B00D88F09F5798F0B92F9927B751F2
:1019F000B0F0E1F0660F771F881F991F1AF0BA95B3
:101A0000C9F714C0B13091F00E94CA0DB1E0089539
:101A10000C94CA0D672F782F8827B85F39F0B93F2B
:101A2000CCF3869577956795B395D9F73EF4909565
:101A30008095709561957F4F8F4F9F4F0895E894E3
:101A400009C097FB3EF490958095709561957F4F06
:101A50008F4F9F4F9923A9F0F92F96E9BB279395B4
:101A6000F695879577956795B795F111F8CFFAF4C4
:101A7000BB0F11F460FF1BC06F5F7F4F8F4F9F4FF5
:101A800016C0882311F096E911C0772321F09EE853
:101A9000872F762F05C0662371F096E8862F70E0B9
:101AA00060E02AF09A95660F771F881FDAF7880F93
:101AB0009695879597F90895990F0008550FAA0BE9
:101AC000E0E8FEEF16161706E807F907C0F0121651
:101AD0001306E407F50798F0621B730B840B950B54
:101AE00039F40A2661F0232B242B252B21F40895A9
:101AF0000A2609F4A140A6958FEF811D811D089546
:101B000097F99F6780E870E060E008959FEF80ECB0
:101B1000089500240A941616170618060906089553
:101B200000240A9412161306140605060895092EB9
:101B30000394000C11F4882352F0BB0F40F4BF2B28
:101B400011F460FF04C06F5F7F4F8F4F9F4F089568
:101B500057FD9058440F551F59F05F3F71F047955E
:101B6000880F97FB991F61F09F3F79F08795089543
:101B7000121613061406551FF2CF4695F1DF08C062
:101B8000161617061806991FF1CF8695710561057F
:101B900008940895E894BB2766277727CB0197F927
:101BA00008950E945C0D08F48FEF08950E94E90DDE
:101BB0000C94970D0E94890D38F00E94900D20F032
:101BC000952311F00C94800D0C94860D11240C9427
:101BD000CB0D0E94A80D70F3959FC1F3950F50E0B7
:101BE000551F629FF001729FBB27F00DB11D639FCF
:101BF000AA27F00DB11DAA1F649F6627B00DA11D75
:101C0000661F829F2227B00DA11D621F739FB00D1A
:101C1000A11D621F839FA00D611D221F749F33278A
:101C2000A00D611D231F849F600D211D822F762F23
:101C30006A2F11249F5750409AF0F1F088234AF000
:101C4000EE0FFF1FBB1F661F771F881F915050406C
:101C5000A9F79E3F510580F00C94800D0C94CB0D9C
:101C60005F3FE4F3983ED4F3869577956795B795F3
:101C7000F795E7959F5FC1F7FE2B880F911D96950D
:101C8000879597F908950E945C0D880B990B08952C
:101C9000991B79E004C0991F961708F0961B881FBE
:101CA0007A95C9F780950895EE0FFF1F0590F4917E
:081CB000E02D0994F894FFCF28
:101CB8002503250301000100010000004000140075
:101CC800540000000000B00110013D01FD016E014B
:101CD8004C01600100000000AF0382034204580376
:101CE8007B0368035903000000000F05100142043C
:101CF800260356454E44494E47204D414348494ED8
:101D0800450053454C4543542042454552005455DF
:101D1800534B45523D4B53483A333000494E534597
:101D2800525420434F494E5300414D4F554E542075
:101D3800454E4F5547480050524F4455435420494B
:101D480053204245494E470044495350454E534558
:101D580044004755494E4E45533D4B53483A34305D
:101D6800005448414E4B20594F5500494E53455257
:101D7800544544204B53483A006E616E00696E66C4
:061D8800006F766600000A
:107E0000112484B714BE81FFF0D085E080938100F7
:107E100082E08093C00088E18093C10086E0809377
:107E2000C20080E18093C4008EE0C9D0259A86E02C
:107E300020E33CEF91E0309385002093840096BBD3
:107E4000B09BFECF1D9AA8958150A9F7CC24DD24C4
:107E500088248394B5E0AB2EA1E19A2EF3E0BF2EE7
:107E6000A2D0813461F49FD0082FAFD0023811F036
:107E7000013811F484E001C083E08DD089C08234E0
:107E800011F484E103C0853419F485E0A6D080C0E4
:107E9000853579F488D0E82EFF2485D0082F10E0AE
:107EA000102F00270E291F29000F111F8ED06801E7
:107EB0006FC0863521F484E090D080E0DECF843638
:107EC00009F040C070D06FD0082F6DD080E0C81688
:107ED00080E7D80618F4F601B7BEE895C0E0D1E017
:107EE00062D089930C17E1F7F0E0CF16F0E7DF06D8
:107EF00018F0F601B7BEE89568D007B600FCFDCFD4
:107F0000A601A0E0B1E02C9130E011968C91119780
:107F100090E0982F8827822B932B1296FA010C0160
:107F200087BEE89511244E5F5F4FF1E0A038BF0790
:107F300051F7F601A7BEE89507B600FCFDCF97BE46
:107F4000E89526C08437B1F42ED02DD0F82E2BD052
:107F50003CD0F601EF2C8F010F5F1F4F84911BD097
:107F6000EA94F801C1F70894C11CD11CFA94CF0C13
:107F7000D11C0EC0853739F428D08EE10CD085E9AC
:107F80000AD08FE07ACF813511F488E018D01DD067
:107F900080E101D065CF982F8091C00085FFFCCF94
:107FA0009093C60008958091C00087FFFCCF809118
:107FB000C00084FD01C0A8958091C6000895E0E648
:107FC000F0E098E1908380830895EDDF803219F02E
:107FD00088E0F5DFFFCF84E1DECF1F93182FE3DFCA
:107FE0001150E9F7F2DF1F91089580E0E8DFEE27F6
:047FF000FF270994CA
:027FFE00040479
:0400000300007E007B
:00000001FF
